{
  "contractName": "LookupContract",
  "abi": [
    {
      "inputs": [
        {
          "internalType": "string",
          "name": "_name",
          "type": "string"
        },
        {
          "internalType": "uint256",
          "name": "_mobileNumber",
          "type": "uint256"
        }
      ],
      "stateMutability": "nonpayable",
      "type": "constructor"
    },
    {
      "inputs": [
        {
          "internalType": "string",
          "name": "",
          "type": "string"
        }
      ],
      "name": "myDirectory",
      "outputs": [
        {
          "internalType": "uint256",
          "name": "",
          "type": "uint256"
        }
      ],
      "stateMutability": "view",
      "type": "function"
    },
    {
      "inputs": [
        {
          "internalType": "string",
          "name": "_name",
          "type": "string"
        },
        {
          "internalType": "uint256",
          "name": "_mobileNumber",
          "type": "uint256"
        }
      ],
      "name": "setMobileNumber",
      "outputs": [],
      "stateMutability": "nonpayable",
      "type": "function"
    },
    {
      "inputs": [
        {
          "internalType": "string",
          "name": "_name",
          "type": "string"
        }
      ],
      "name": "getMobileNumber",
      "outputs": [
        {
          "internalType": "uint256",
          "name": "",
          "type": "uint256"
        }
      ],
      "stateMutability": "view",
      "type": "function"
    }
  ],
  "bytecode": "0x608060405234801561001057600080fd5b5060405161045b38038061045b83398101604081905261002f91610058565b80600083604051610040919061010f565b908152604051908190036020019020555061018a9050565b6000806040838503121561006b57600080fd5b825167ffffffffffffffff8082111561008357600080fd5b818501915085601f83011261009757600080fd5b8151818111156100a9576100a961015b565b604051601f8201601f19908116603f011681019083821181831017156100d1576100d161015b565b816040528281528860208487010111156100ea57600080fd5b6100fb83602083016020880161012b565b602097909701519698969750505050505050565b6000825161012181846020870161012b565b9190910192915050565b60005b8381101561014657818101518382015260200161012e565b83811115610155576000848401525b50505050565b7f4e487b7100000000000000000000000000000000000000000000000000000000600052604160045260246000fd5b6102c2806101996000396000f3fe608060405234801561001057600080fd5b506004361061005d577c0100000000000000000000000000000000000000000000000000000000600035046314b3ee6881146100625780639f11592114610087578063fd8111e91461009c575b600080fd5b6100756100703660046101a0565b6100c7565b60405190815260200160405180910390f35b61009a6100953660046101dd565b6100ee565b005b6100756100aa3660046101a0565b805160208183018101805160008252928201919093012091525481565b600080826040516100d89190610222565b9081526020016040518091039020549050919050565b806000836040516100ff9190610222565b908152604051908190036020019020555050565b600082601f83011261012457600080fd5b813567ffffffffffffffff8082111561013f5761013f61025d565b604051601f8301601f19908116603f011681019082821181831017156101675761016761025d565b8160405283815286602085880101111561018057600080fd5b836020870160208301376000602085830101528094505050505092915050565b6000602082840312156101b257600080fd5b813567ffffffffffffffff8111156101c957600080fd5b6101d584828501610113565b949350505050565b600080604083850312156101f057600080fd5b823567ffffffffffffffff81111561020757600080fd5b61021385828601610113565b95602094909401359450505050565b6000825160005b818110156102435760208186018101518583015201610229565b81811115610252576000828501525b509190910192915050565b7f4e487b7100000000000000000000000000000000000000000000000000000000600052604160045260246000fdfea264697066735822122037cf0a0197ff6826327e67fb6f7b16e2c704e66598c9e50e2cfb6447c735659a64736f6c63430008060033",
  "immutableReferences": {},
  "source": "// SPDX-License-Identifier: GPL-3.0\npragma solidity >=0.7.0 <0.9.0;\n \n\ncontract LookupContract {\n\nmapping (string => uint) public myDirectory;\n\nconstructor (string memory _name, uint _mobileNumber) public {\n        myDirectory[_name] = _mobileNumber;\n    }\n\nfunction setMobileNumber(string memory _name, uint _mobileNumber) public {\n        myDirectory[_name] = _mobileNumber;\n    }\n\nfunction getMobileNumber(string memory _name) public view returns (uint) {\n        return myDirectory[_name];\n    }\n\n}\n",
  "sourcePath": "C:\\ACCUBITS\\PROJECT\\HEDERA_NFT\\contracts\\LookupContract.sol",
  "compiler": {
    "name": "solc",
    "version": "0.8.6+commit.11564f7e.Emscripten.clang"
  },
  "schemaVersion": "3.4.3",
  "updatedAt": "2023-02-09T15:07:32.515Z",
  "devdoc": {
    "kind": "dev",
    "methods": {},
    "version": 1
  },
  "userdoc": {
    "kind": "user",
    "methods": {},
    "version": 1
  }
}